{
  "address": "0x64Ecf0BD085B1d6EE505F0d736953f866180c705",
  "abi": [
    {
      "inputs": [
        {
          "internalType": "address",
          "name": "priceFeedAddress",
          "type": "address"
        }
      ],
      "stateMutability": "nonpayable",
      "type": "constructor"
    },
    {
      "inputs": [],
      "name": "NotOwner",
      "type": "error"
    },
    {
      "stateMutability": "payable",
      "type": "fallback"
    },
    {
      "inputs": [],
      "name": "MINIMUM_USD",
      "outputs": [
        {
          "internalType": "uint256",
          "name": "",
          "type": "uint256"
        }
      ],
      "stateMutability": "view",
      "type": "function"
    },
    {
      "inputs": [
        {
          "internalType": "address",
          "name": "",
          "type": "address"
        }
      ],
      "name": "addressToAmountFunded",
      "outputs": [
        {
          "internalType": "uint256",
          "name": "",
          "type": "uint256"
        }
      ],
      "stateMutability": "view",
      "type": "function"
    },
    {
      "inputs": [],
      "name": "fund",
      "outputs": [],
      "stateMutability": "payable",
      "type": "function"
    },
    {
      "inputs": [
        {
          "internalType": "uint256",
          "name": "",
          "type": "uint256"
        }
      ],
      "name": "funders",
      "outputs": [
        {
          "internalType": "address",
          "name": "",
          "type": "address"
        }
      ],
      "stateMutability": "view",
      "type": "function"
    },
    {
      "inputs": [],
      "name": "getVersion",
      "outputs": [
        {
          "internalType": "uint256",
          "name": "",
          "type": "uint256"
        }
      ],
      "stateMutability": "view",
      "type": "function"
    },
    {
      "inputs": [],
      "name": "i_owner",
      "outputs": [
        {
          "internalType": "address",
          "name": "",
          "type": "address"
        }
      ],
      "stateMutability": "view",
      "type": "function"
    },
    {
      "inputs": [],
      "name": "priceFeed",
      "outputs": [
        {
          "internalType": "contract AggregatorV3Interface",
          "name": "",
          "type": "address"
        }
      ],
      "stateMutability": "view",
      "type": "function"
    },
    {
      "inputs": [],
      "name": "withdraw",
      "outputs": [],
      "stateMutability": "nonpayable",
      "type": "function"
    },
    {
      "stateMutability": "payable",
      "type": "receive"
    }
  ],
  "transactionHash": "0x316a83461cc1d21873bdddae590bfa64e3fd84226f03437a4fd03dd9980fe1c1",
  "args": [
    "0x694aa1769357215de4fac081bf1f309adc325306"
  ],
  "numDeployments": 1,
  "solcInputHash": "9f355626ca8469310cfda8dde98b60b9",
  "bytecode": "0x60a06040523480156200001157600080fd5b506040516200110138038062001101833981810160405281019062000037919062000120565b3373ffffffffffffffffffffffffffffffffffffffff1660808173ffffffffffffffffffffffffffffffffffffffff1660601b8152505080600260006101000a81548173ffffffffffffffffffffffffffffffffffffffff021916908373ffffffffffffffffffffffffffffffffffffffff1602179055505062000152565b600080fd5b600073ffffffffffffffffffffffffffffffffffffffff82169050919050565b6000620000e882620000bb565b9050919050565b620000fa81620000db565b81146200010657600080fd5b50565b6000815190506200011a81620000ef565b92915050565b600060208284031215620001395762000138620000b6565b5b6000620001498482850162000109565b91505092915050565b60805160601c610f8962000178600039600081816103c2015261064d0152610f896000f3fe60806040526004361061007f5760003560e01c8063741bef1a1161004e578063741bef1a14610142578063b60d42881461016d578063dba6335f14610177578063dc0d3dff146101a25761008e565b80630d8e6e2c146100985780633ccfd60b146100c35780633e47d6f3146100da5780636b69a592146101175761008e565b3661008e5761008c6101df565b005b6100966101df565b005b3480156100a457600080fd5b506100ad610319565b6040516100ba919061084a565b60405180910390f35b3480156100cf57600080fd5b506100d86103c0565b005b3480156100e657600080fd5b5061010160048036038101906100fc91906108c8565b610600565b60405161010e919061084a565b60405180910390f35b34801561012357600080fd5b5061012c610618565b604051610139919061084a565b60405180910390f35b34801561014e57600080fd5b50610157610625565b6040516101649190610954565b60405180910390f35b6101756101df565b005b34801561018357600080fd5b5061018c61064b565b604051610199919061097e565b60405180910390f35b3480156101ae57600080fd5b506101c960048036038101906101c491906109c5565b61066f565b6040516101d6919061097e565b60405180910390f35b6802b5e3af16b188000061021e600260009054906101000a900473ffffffffffffffffffffffffffffffffffffffff16346106ae90919063ffffffff16565b101561025f576040517f08c379a000000000000000000000000000000000000000000000000000000000815260040161025690610a4f565b60405180910390fd5b346000803373ffffffffffffffffffffffffffffffffffffffff1673ffffffffffffffffffffffffffffffffffffffff16815260200190815260200160002060008282546102ad9190610a9e565b925050819055506001339080600181540180825580915050600190039060005260206000200160009091909190916101000a81548173ffffffffffffffffffffffffffffffffffffffff021916908373ffffffffffffffffffffffffffffffffffffffff160217905550565b6000600260009054906101000a900473ffffffffffffffffffffffffffffffffffffffff1673ffffffffffffffffffffffffffffffffffffffff166354fd4d506040518163ffffffff1660e01b815260040160206040518083038186803b15801561038357600080fd5b505afa158015610397573d6000803e3d6000fd5b505050506040513d601f19601f820116820180604052508101906103bb9190610b09565b905090565b7f000000000000000000000000000000000000000000000000000000000000000073ffffffffffffffffffffffffffffffffffffffff163373ffffffffffffffffffffffffffffffffffffffff1614610445576040517f30cd747100000000000000000000000000000000000000000000000000000000815260040160405180910390fd5b60005b6001805490508110156104f05760006001828154811061046b5761046a610b36565b5b9060005260206000200160009054906101000a900473ffffffffffffffffffffffffffffffffffffffff16905060008060008373ffffffffffffffffffffffffffffffffffffffff1673ffffffffffffffffffffffffffffffffffffffff168152602001908152602001600020819055505080806104e890610b65565b915050610448565b50600067ffffffffffffffff81111561050c5761050b610bae565b5b60405190808252806020026020018201604052801561053a5781602001602082028036833780820191505090505b506001908051906020019061055092919061078a565b5060003373ffffffffffffffffffffffffffffffffffffffff164760405161057790610c0e565b60006040518083038185875af1925050503d80600081146105b4576040519150601f19603f3d011682016040523d82523d6000602084013e6105b9565b606091505b50509050806105fd576040517f08c379a00000000000000000000000000000000000000000000000000000000081526004016105f490610c6f565b60405180910390fd5b50565b60006020528060005260406000206000915090505481565b6802b5e3af16b188000081565b600260009054906101000a900473ffffffffffffffffffffffffffffffffffffffff1681565b7f000000000000000000000000000000000000000000000000000000000000000081565b6001818154811061067f57600080fd5b906000526020600020016000915054906101000a900473ffffffffffffffffffffffffffffffffffffffff1681565b6000806106ba836106ea565b90506000670de0b6b3a764000085836106d39190610c8f565b6106dd9190610d18565b9050809250505092915050565b6000808273ffffffffffffffffffffffffffffffffffffffff1663feaf968c6040518163ffffffff1660e01b815260040160a06040518083038186803b15801561073357600080fd5b505afa158015610747573d6000803e3d6000fd5b505050506040513d601f19601f8201168201806040525081019061076b9190610dc1565b5050509150506402540be400816107829190610e3c565b915050919050565b828054828255906000526020600020908101928215610803579160200282015b828111156108025782518260006101000a81548173ffffffffffffffffffffffffffffffffffffffff021916908373ffffffffffffffffffffffffffffffffffffffff160217905550916020019190600101906107aa565b5b5090506108109190610814565b5090565b5b8082111561082d576000816000905550600101610815565b5090565b6000819050919050565b61084481610831565b82525050565b600060208201905061085f600083018461083b565b92915050565b600080fd5b600073ffffffffffffffffffffffffffffffffffffffff82169050919050565b60006108958261086a565b9050919050565b6108a58161088a565b81146108b057600080fd5b50565b6000813590506108c28161089c565b92915050565b6000602082840312156108de576108dd610865565b5b60006108ec848285016108b3565b91505092915050565b6000819050919050565b600061091a6109156109108461086a565b6108f5565b61086a565b9050919050565b600061092c826108ff565b9050919050565b600061093e82610921565b9050919050565b61094e81610933565b82525050565b60006020820190506109696000830184610945565b92915050565b6109788161088a565b82525050565b6000602082019050610993600083018461096f565b92915050565b6109a281610831565b81146109ad57600080fd5b50565b6000813590506109bf81610999565b92915050565b6000602082840312156109db576109da610865565b5b60006109e9848285016109b0565b91505092915050565b600082825260208201905092915050565b7f596f75206e65656420746f207370656e64206d6f726520455448210000000000600082015250565b6000610a39601b836109f2565b9150610a4482610a03565b602082019050919050565b60006020820190508181036000830152610a6881610a2c565b9050919050565b7f4e487b7100000000000000000000000000000000000000000000000000000000600052601160045260246000fd5b6000610aa982610831565b9150610ab483610831565b9250827fffffffffffffffffffffffffffffffffffffffffffffffffffffffffffffffff03821115610ae957610ae8610a6f565b5b828201905092915050565b600081519050610b0381610999565b92915050565b600060208284031215610b1f57610b1e610865565b5b6000610b2d84828501610af4565b91505092915050565b7f4e487b7100000000000000000000000000000000000000000000000000000000600052603260045260246000fd5b6000610b7082610831565b91507fffffffffffffffffffffffffffffffffffffffffffffffffffffffffffffffff821415610ba357610ba2610a6f565b5b600182019050919050565b7f4e487b7100000000000000000000000000000000000000000000000000000000600052604160045260246000fd5b600081905092915050565b50565b6000610bf8600083610bdd565b9150610c0382610be8565b600082019050919050565b6000610c1982610beb565b9150819050919050565b7f43616c6c206661696c6564000000000000000000000000000000000000000000600082015250565b6000610c59600b836109f2565b9150610c6482610c23565b602082019050919050565b60006020820190508181036000830152610c8881610c4c565b9050919050565b6000610c9a82610831565b9150610ca583610831565b9250817fffffffffffffffffffffffffffffffffffffffffffffffffffffffffffffffff0483118215151615610cde57610cdd610a6f565b5b828202905092915050565b7f4e487b7100000000000000000000000000000000000000000000000000000000600052601260045260246000fd5b6000610d2382610831565b9150610d2e83610831565b925082610d3e57610d3d610ce9565b5b828204905092915050565b600069ffffffffffffffffffff82169050919050565b610d6881610d49565b8114610d7357600080fd5b50565b600081519050610d8581610d5f565b92915050565b6000819050919050565b610d9e81610d8b565b8114610da957600080fd5b50565b600081519050610dbb81610d95565b92915050565b600080600080600060a08688031215610ddd57610ddc610865565b5b6000610deb88828901610d76565b9550506020610dfc88828901610dac565b9450506040610e0d88828901610af4565b9350506060610e1e88828901610af4565b9250506080610e2f88828901610d76565b9150509295509295909350565b6000610e4782610d8b565b9150610e5283610d8b565b9250827f7fffffffffffffffffffffffffffffffffffffffffffffffffffffffffffffff0482116000841360008413161615610e9157610e90610a6f565b5b817f80000000000000000000000000000000000000000000000000000000000000000583126000841260008413161615610ece57610ecd610a6f565b5b827f80000000000000000000000000000000000000000000000000000000000000000582126000841360008412161615610f0b57610f0a610a6f565b5b827f7fffffffffffffffffffffffffffffffffffffffffffffffffffffffffffffff0582126000841260008412161615610f4857610f47610a6f565b5b82820290509291505056fea2646970667358221220fc711e008add31eac42d49dc727c9d957f0ae538f7414c3d25d3c654fa226cf664736f6c63430008080033",
  "devdoc": {
    "kind": "dev",
    "methods": {},
    "version": 1
  },
  "userdoc": {
    "kind": "user",
    "methods": {},
    "version": 1
  },
  "storageLayout": {
    "storage": [
      {
        "astId": 323,
        "contract": "contracts/FundMe.sol:FundMe",
        "label": "addressToAmountFunded",
        "offset": 0,
        "slot": "0",
        "type": "t_mapping(t_address,t_uint256)"
      },
      {
        "astId": 326,
        "contract": "contracts/FundMe.sol:FundMe",
        "label": "funders",
        "offset": 0,
        "slot": "1",
        "type": "t_array(t_address)dyn_storage"
      },
      {
        "astId": 338,
        "contract": "contracts/FundMe.sol:FundMe",
        "label": "priceFeed",
        "offset": 0,
        "slot": "2",
        "type": "t_contract(AggregatorV3Interface)104"
      }
    ],
    "types": {
      "t_address": {
        "encoding": "inplace",
        "label": "address",
        "numberOfBytes": "20"
      },
      "t_array(t_address)dyn_storage": {
        "base": "t_address",
        "encoding": "dynamic_array",
        "label": "address[]",
        "numberOfBytes": "32"
      },
      "t_contract(AggregatorV3Interface)104": {
        "encoding": "inplace",
        "label": "contract AggregatorV3Interface",
        "numberOfBytes": "20"
      },
      "t_mapping(t_address,t_uint256)": {
        "encoding": "mapping",
        "key": "t_address",
        "label": "mapping(address => uint256)",
        "numberOfBytes": "32",
        "value": "t_uint256"
      },
      "t_uint256": {
        "encoding": "inplace",
        "label": "uint256",
        "numberOfBytes": "32"
      }
    }
  }
}